{
  "_format": "hh-sol-artifact-1",
  "contractName": "AccessControl",
  "sourceName": "contracts/AccessControl.sol",
  "abi": [
    {
      "inputs": [],
      "stateMutability": "nonpayable",
      "type": "constructor"
    },
    {
      "inputs": [
        {
          "internalType": "address",
          "name": "_doctorAddress",
          "type": "address"
        }
      ],
      "name": "addAuthorisedDoctor",
      "outputs": [],
      "stateMutability": "nonpayable",
      "type": "function"
    },
    {
      "inputs": [],
      "name": "owner",
      "outputs": [
        {
          "internalType": "address",
          "name": "",
          "type": "address"
        }
      ],
      "stateMutability": "view",
      "type": "function"
    },
    {
      "inputs": [
        {
          "internalType": "address",
          "name": "_doctorAddress",
          "type": "address"
        }
      ],
      "name": "removeAuthorisedDoctor",
      "outputs": [],
      "stateMutability": "nonpayable",
      "type": "function"
    }
  ],
  "bytecode": "0x608060405234801561001057600080fd5b50336000806101000a81548173ffffffffffffffffffffffffffffffffffffffff021916908373ffffffffffffffffffffffffffffffffffffffff16021790555060018060008060009054906101000a900473ffffffffffffffffffffffffffffffffffffffff1673ffffffffffffffffffffffffffffffffffffffff1673ffffffffffffffffffffffffffffffffffffffff16815260200190815260200160002060006101000a81548160ff02191690831515021790555061041b806100d86000396000f3fe608060405234801561001057600080fd5b50600436106100415760003560e01c806325da1c771461004657806342d68838146100625780638da5cb5b1461007e575b600080fd5b610060600480360381019061005b91906102a6565b61009c565b005b61007c600480360381019061007791906102a6565b610184565b005b61008661026d565b6040516100939190610301565b60405180910390f35b60008054906101000a900473ffffffffffffffffffffffffffffffffffffffff1673ffffffffffffffffffffffffffffffffffffffff163373ffffffffffffffffffffffffffffffffffffffff161461012a576040517f08c379a00000000000000000000000000000000000000000000000000000000081526004016101219061031c565b60405180910390fd5b60018060008373ffffffffffffffffffffffffffffffffffffffff1673ffffffffffffffffffffffffffffffffffffffff16815260200190815260200160002060006101000a81548160ff02191690831515021790555050565b60008054906101000a900473ffffffffffffffffffffffffffffffffffffffff1673ffffffffffffffffffffffffffffffffffffffff163373ffffffffffffffffffffffffffffffffffffffff1614610212576040517f08c379a00000000000000000000000000000000000000000000000000000000081526004016102099061031c565b60405180910390fd5b6000600160008373ffffffffffffffffffffffffffffffffffffffff1673ffffffffffffffffffffffffffffffffffffffff16815260200190815260200160002060006101000a81548160ff02191690831515021790555050565b60008054906101000a900473ffffffffffffffffffffffffffffffffffffffff1681565b6000813590506102a0816103ce565b92915050565b6000602082840312156102b857600080fd5b60006102c684828501610291565b91505092915050565b6102d88161034d565b82525050565b60006102eb60288361033c565b91506102f68261037f565b604082019050919050565b600060208201905061031660008301846102cf565b92915050565b60006020820190508181036000830152610335816102de565b9050919050565b600082825260208201905092915050565b60006103588261035f565b9050919050565b600073ffffffffffffffffffffffffffffffffffffffff82169050919050565b7f4f7070732c20596f752077696c6c206e65656420746f20636f6e74616374207460008201527f6865206f776e6572000000000000000000000000000000000000000000000000602082015250565b6103d78161034d565b81146103e257600080fd5b5056fea2646970667358221220576654fffc8574730dadf13f20e1049ca5c849cdfa1d24b3069ed0cdf5bb80dd64736f6c63430008040033",
  "linkReferences": {},
  "deployedLinkReferences": {}
}