{
  "_format": "hh-sol-artifact-1",
  "contractName": "Doctors",
  "sourceName": "contracts/Doctors.sol",
  "abi": [
    {
      "inputs": [
        {
          "internalType": "string",
          "name": "_doctorId",
          "type": "string"
        },
        {
          "internalType": "string",
          "name": "_gender",
          "type": "string"
        }
      ],
      "name": "addDoctorGender",
      "outputs": [],
      "stateMutability": "nonpayable",
      "type": "function"
    },
    {
      "inputs": [
        {
          "internalType": "string",
          "name": "_doctorId",
          "type": "string"
        },
        {
          "internalType": "string",
          "name": "_hospital",
          "type": "string"
        }
      ],
      "name": "addDoctorHospital",
      "outputs": [],
      "stateMutability": "nonpayable",
      "type": "function"
    },
    {
      "inputs": [
        {
          "internalType": "string",
          "name": "_doctorId",
          "type": "string"
        },
        {
          "internalType": "string",
          "name": "_name",
          "type": "string"
        }
      ],
      "name": "addDoctorName",
      "outputs": [],
      "stateMutability": "nonpayable",
      "type": "function"
    },
    {
      "inputs": [
        {
          "internalType": "string",
          "name": "_doctorId",
          "type": "string"
        },
        {
          "internalType": "string",
          "name": "_speciality",
          "type": "string"
        }
      ],
      "name": "addDoctorSpeciality",
      "outputs": [],
      "stateMutability": "nonpayable",
      "type": "function"
    },
    {
      "inputs": [
        {
          "internalType": "string",
          "name": "_doctorId",
          "type": "string"
        }
      ],
      "name": "getDoctorGender",
      "outputs": [
        {
          "internalType": "string",
          "name": "",
          "type": "string"
        }
      ],
      "stateMutability": "view",
      "type": "function"
    },
    {
      "inputs": [
        {
          "internalType": "string",
          "name": "_doctorId",
          "type": "string"
        }
      ],
      "name": "getDoctorHospital",
      "outputs": [
        {
          "internalType": "string",
          "name": "",
          "type": "string"
        }
      ],
      "stateMutability": "view",
      "type": "function"
    },
    {
      "inputs": [
        {
          "internalType": "string",
          "name": "_doctorId",
          "type": "string"
        }
      ],
      "name": "getDoctorName",
      "outputs": [
        {
          "internalType": "string",
          "name": "",
          "type": "string"
        }
      ],
      "stateMutability": "view",
      "type": "function"
    },
    {
      "inputs": [
        {
          "internalType": "string",
          "name": "_doctorId",
          "type": "string"
        }
      ],
      "name": "getDoctorSpeciality",
      "outputs": [
        {
          "internalType": "string",
          "name": "",
          "type": "string"
        }
      ],
      "stateMutability": "view",
      "type": "function"
    }
  ],
  "bytecode": "0x608060405234801561001057600080fd5b50610993806100206000396000f3fe608060405234801561001057600080fd5b50600436106100885760003560e01c806386e383e41161005b57806386e383e4146101255780639e92b79114610141578063b4d311471461015d578063b85390be1461018d57610088565b80630dd759781461008d5780632e3b2250146100a9578063451644ba146100c557806345824eff146100f5575b600080fd5b6100a760048036038101906100a291906106bd565b6101bd565b005b6100c360048036038101906100be91906106bd565b6101f7565b005b6100df60048036038101906100da919061067c565b610231565b6040516100ec91906107aa565b60405180910390f35b61010f600480360381019061010a919061067c565b6102e4565b60405161011c91906107aa565b60405180910390f35b61013f600480360381019061013a91906106bd565b610397565b005b61015b600480360381019061015691906106bd565b6103d1565b005b6101776004803603810190610172919061067c565b61040b565b60405161018491906107aa565b60405180910390f35b6101a760048036038101906101a2919061067c565b6104be565b6040516101b491906107aa565b60405180910390f35b806000836040516101ce9190610793565b908152602001604051809103902060020190805190602001906101f2929190610571565b505050565b806000836040516102089190610793565b9081526020016040518091039020600001908051906020019061022c929190610571565b505050565b60606000826040516102439190610793565b9081526020016040518091039020600001805461025f9061088b565b80601f016020809104026020016040519081016040528092919081815260200182805461028b9061088b565b80156102d85780601f106102ad576101008083540402835291602001916102d8565b820191906000526020600020905b8154815290600101906020018083116102bb57829003601f168201915b50505050509050919050565b60606000826040516102f69190610793565b908152602001604051809103902060010180546103129061088b565b80601f016020809104026020016040519081016040528092919081815260200182805461033e9061088b565b801561038b5780601f106103605761010080835404028352916020019161038b565b820191906000526020600020905b81548152906001019060200180831161036e57829003601f168201915b50505050509050919050565b806000836040516103a89190610793565b908152602001604051809103902060010190805190602001906103cc929190610571565b505050565b806000836040516103e29190610793565b90815260200160405180910390206003019080519060200190610406929190610571565b505050565b606060008260405161041d9190610793565b908152602001604051809103902060020180546104399061088b565b80601f01602080910402602001604051908101604052809291908181526020018280546104659061088b565b80156104b25780601f10610487576101008083540402835291602001916104b2565b820191906000526020600020905b81548152906001019060200180831161049557829003601f168201915b50505050509050919050565b60606000826040516104d09190610793565b908152602001604051809103902060030180546104ec9061088b565b80601f01602080910402602001604051908101604052809291908181526020018280546105189061088b565b80156105655780601f1061053a57610100808354040283529160200191610565565b820191906000526020600020905b81548152906001019060200180831161054857829003601f168201915b50505050509050919050565b82805461057d9061088b565b90600052602060002090601f01602090048101928261059f57600085556105e6565b82601f106105b857805160ff19168380011785556105e6565b828001600101855582156105e6579182015b828111156105e55782518255916020019190600101906105ca565b5b5090506105f391906105f7565b5090565b5b808211156106105760008160009055506001016105f8565b5090565b6000610627610622846107f1565b6107cc565b90508281526020810184848401111561063f57600080fd5b61064a848285610849565b509392505050565b600082601f83011261066357600080fd5b8135610673848260208601610614565b91505092915050565b60006020828403121561068e57600080fd5b600082013567ffffffffffffffff8111156106a857600080fd5b6106b484828501610652565b91505092915050565b600080604083850312156106d057600080fd5b600083013567ffffffffffffffff8111156106ea57600080fd5b6106f685828601610652565b925050602083013567ffffffffffffffff81111561071357600080fd5b61071f85828601610652565b9150509250929050565b600061073482610822565b61073e818561082d565b935061074e818560208601610858565b6107578161094c565b840191505092915050565b600061076d82610822565b610777818561083e565b9350610787818560208601610858565b80840191505092915050565b600061079f8284610762565b915081905092915050565b600060208201905081810360008301526107c48184610729565b905092915050565b60006107d66107e7565b90506107e282826108bd565b919050565b6000604051905090565b600067ffffffffffffffff82111561080c5761080b61091d565b5b6108158261094c565b9050602081019050919050565b600081519050919050565b600082825260208201905092915050565b600081905092915050565b82818337600083830152505050565b60005b8381101561087657808201518184015260208101905061085b565b83811115610885576000848401525b50505050565b600060028204905060018216806108a357607f821691505b602082108114156108b7576108b66108ee565b5b50919050565b6108c68261094c565b810181811067ffffffffffffffff821117156108e5576108e461091d565b5b80604052505050565b7f4e487b7100000000000000000000000000000000000000000000000000000000600052602260045260246000fd5b7f4e487b7100000000000000000000000000000000000000000000000000000000600052604160045260246000fd5b6000601f19601f830116905091905056fea2646970667358221220a768c28202ca0db64f190567122692b479ff9d3a6267a01211d2e1fcaa4a12dc64736f6c63430008040033",
  "linkReferences": {},
  "deployedLinkReferences": {}
}