{
  "_format": "hh-sol-artifact-1",
  "contractName": "Patients",
  "sourceName": "contracts/Patients.sol",
  "abi": [
    {
      "inputs": [
        {
          "internalType": "string",
          "name": "_patientId",
          "type": "string"
        },
        {
          "internalType": "string",
          "name": "_patientAddress",
          "type": "string"
        }
      ],
      "name": "addPatientAddress",
      "outputs": [],
      "stateMutability": "nonpayable",
      "type": "function"
    },
    {
      "inputs": [
        {
          "internalType": "string",
          "name": "_patientId",
          "type": "string"
        },
        {
          "internalType": "string",
          "name": "_allergy",
          "type": "string"
        }
      ],
      "name": "addPatientAllergies",
      "outputs": [],
      "stateMutability": "nonpayable",
      "type": "function"
    },
    {
      "inputs": [
        {
          "internalType": "string",
          "name": "_patientId",
          "type": "string"
        },
        {
          "internalType": "string",
          "name": "_patientDateOfBirth",
          "type": "string"
        }
      ],
      "name": "addPatientDateOfBirth",
      "outputs": [],
      "stateMutability": "nonpayable",
      "type": "function"
    },
    {
      "inputs": [
        {
          "internalType": "string",
          "name": "_patientId",
          "type": "string"
        },
        {
          "internalType": "string",
          "name": "_patientGender",
          "type": "string"
        }
      ],
      "name": "addPatientGender",
      "outputs": [],
      "stateMutability": "nonpayable",
      "type": "function"
    },
    {
      "inputs": [
        {
          "internalType": "string",
          "name": "_patientId",
          "type": "string"
        },
        {
          "internalType": "string",
          "name": "_patientMobileNumber",
          "type": "string"
        }
      ],
      "name": "addPatientMobileNumber",
      "outputs": [],
      "stateMutability": "nonpayable",
      "type": "function"
    },
    {
      "inputs": [
        {
          "internalType": "string",
          "name": "_patientId",
          "type": "string"
        },
        {
          "internalType": "string",
          "name": "_name",
          "type": "string"
        }
      ],
      "name": "addPatientName",
      "outputs": [],
      "stateMutability": "nonpayable",
      "type": "function"
    },
    {
      "inputs": [
        {
          "internalType": "string",
          "name": "_patientId",
          "type": "string"
        }
      ],
      "name": "getPatientAddress",
      "outputs": [
        {
          "internalType": "string",
          "name": "",
          "type": "string"
        }
      ],
      "stateMutability": "view",
      "type": "function"
    },
    {
      "inputs": [
        {
          "internalType": "string",
          "name": "_patientId",
          "type": "string"
        }
      ],
      "name": "getPatientAllergies",
      "outputs": [
        {
          "internalType": "string",
          "name": "",
          "type": "string"
        }
      ],
      "stateMutability": "view",
      "type": "function"
    },
    {
      "inputs": [
        {
          "internalType": "string",
          "name": "_patientId",
          "type": "string"
        }
      ],
      "name": "getPatientDateOfBirth",
      "outputs": [
        {
          "internalType": "string",
          "name": "",
          "type": "string"
        }
      ],
      "stateMutability": "view",
      "type": "function"
    },
    {
      "inputs": [
        {
          "internalType": "string",
          "name": "_patientId",
          "type": "string"
        }
      ],
      "name": "getPatientGender",
      "outputs": [
        {
          "internalType": "string",
          "name": "",
          "type": "string"
        }
      ],
      "stateMutability": "view",
      "type": "function"
    },
    {
      "inputs": [
        {
          "internalType": "string",
          "name": "_patientId",
          "type": "string"
        }
      ],
      "name": "getPatientMobileNumber",
      "outputs": [
        {
          "internalType": "string",
          "name": "",
          "type": "string"
        }
      ],
      "stateMutability": "view",
      "type": "function"
    },
    {
      "inputs": [
        {
          "internalType": "string",
          "name": "_patientId",
          "type": "string"
        }
      ],
      "name": "getPatientName",
      "outputs": [
        {
          "internalType": "string",
          "name": "",
          "type": "string"
        }
      ],
      "stateMutability": "view",
      "type": "function"
    }
  ],
  "bytecode": "0x608060405234801561001057600080fd5b50610d81806100206000396000f3fe608060405234801561001057600080fd5b50600436106100b45760003560e01c8063a0d48fad11610071578063a0d48fad1461019d578063a1f058c7146101cd578063c38571a5146101e9578063ca987a3014610205578063d19d5b8314610235578063ffdbc05514610265576100b4565b8063153474b9146100b957806325c723d3146100d55780633ba1e7fe1461010557806366c9868e146101215780636df36bc61461013d57806395e587f51461016d575b600080fd5b6100d360048036038101906100ce919061099c565b610281565b005b6100ef60048036038101906100ea919061095b565b6102fc565b6040516100fc9190610b5a565b60405180910390f35b61011f600480360381019061011a919061099c565b6103af565b005b61013b6004803603810190610136919061099c565b6103e9565b005b6101576004803603810190610152919061095b565b610423565b6040516101649190610b5a565b60405180910390f35b6101876004803603810190610182919061095b565b6104d6565b6040516101949190610b5a565b60405180910390f35b6101b760048036038101906101b2919061095b565b610589565b6040516101c49190610b5a565b60405180910390f35b6101e760048036038101906101e2919061099c565b61063c565b005b61020360048036038101906101fe919061099c565b610676565b005b61021f600480360381019061021a919061095b565b6106b0565b60405161022c9190610b5a565b60405180910390f35b61024f600480360381019061024a919061095b565b610763565b60405161025c9190610b5a565b60405180910390f35b61027f600480360381019061027a919061099c565b610816565b005b6000826040516102919190610b14565b9081526020016040518091039020600101816040516020016102b4929190610b2b565b6040516020818303038152906040526000836040516102d39190610b14565b908152602001604051809103902060050190805190602001906102f7929190610850565b505050565b606060008260405161030e9190610b14565b9081526020016040518091039020600201805461032a90610c50565b80601f016020809104026020016040519081016040528092919081815260200182805461035690610c50565b80156103a35780601f10610378576101008083540402835291602001916103a3565b820191906000526020600020905b81548152906001019060200180831161038657829003601f168201915b50505050509050919050565b806000836040516103c09190610b14565b908152602001604051809103902060020190805190602001906103e4929190610850565b505050565b806000836040516103fa9190610b14565b9081526020016040518091039020600101908051906020019061041e929190610850565b505050565b60606000826040516104359190610b14565b9081526020016040518091039020600501805461045190610c50565b80601f016020809104026020016040519081016040528092919081815260200182805461047d90610c50565b80156104ca5780601f1061049f576101008083540402835291602001916104ca565b820191906000526020600020905b8154815290600101906020018083116104ad57829003601f168201915b50505050509050919050565b60606000826040516104e89190610b14565b9081526020016040518091039020600001805461050490610c50565b80601f016020809104026020016040519081016040528092919081815260200182805461053090610c50565b801561057d5780601f106105525761010080835404028352916020019161057d565b820191906000526020600020905b81548152906001019060200180831161056057829003601f168201915b50505050509050919050565b606060008260405161059b9190610b14565b908152602001604051809103902060010180546105b790610c50565b80601f01602080910402602001604051908101604052809291908181526020018280546105e390610c50565b80156106305780601f1061060557610100808354040283529160200191610630565b820191906000526020600020905b81548152906001019060200180831161061357829003601f168201915b50505050509050919050565b8060008360405161064d9190610b14565b90815260200160405180910390206004019080519060200190610671929190610850565b505050565b806000836040516106879190610b14565b908152602001604051809103902060030190805190602001906106ab929190610850565b505050565b60606000826040516106c29190610b14565b908152602001604051809103902060030180546106de90610c50565b80601f016020809104026020016040519081016040528092919081815260200182805461070a90610c50565b80156107575780601f1061072c57610100808354040283529160200191610757565b820191906000526020600020905b81548152906001019060200180831161073a57829003601f168201915b50505050509050919050565b60606000826040516107759190610b14565b9081526020016040518091039020600401805461079190610c50565b80601f01602080910402602001604051908101604052809291908181526020018280546107bd90610c50565b801561080a5780601f106107df5761010080835404028352916020019161080a565b820191906000526020600020905b8154815290600101906020018083116107ed57829003601f168201915b50505050509050919050565b806000836040516108279190610b14565b9081526020016040518091039020600001908051906020019061084b929190610850565b505050565b82805461085c90610c50565b90600052602060002090601f01602090048101928261087e57600085556108c5565b82601f1061089757805160ff19168380011785556108c5565b828001600101855582156108c5579182015b828111156108c45782518255916020019190600101906108a9565b5b5090506108d291906108d6565b5090565b5b808211156108ef5760008160009055506001016108d7565b5090565b600061090661090184610ba1565b610b7c565b90508281526020810184848401111561091e57600080fd5b610929848285610c0e565b509392505050565b600082601f83011261094257600080fd5b81356109528482602086016108f3565b91505092915050565b60006020828403121561096d57600080fd5b600082013567ffffffffffffffff81111561098757600080fd5b61099384828501610931565b91505092915050565b600080604083850312156109af57600080fd5b600083013567ffffffffffffffff8111156109c957600080fd5b6109d585828601610931565b925050602083013567ffffffffffffffff8111156109f257600080fd5b6109fe85828601610931565b9150509250929050565b6000610a1382610be7565b610a1d8185610bf2565b9350610a2d818560208601610c1d565b610a3681610d11565b840191505092915050565b6000610a4c82610be7565b610a568185610c03565b9350610a66818560208601610c1d565b80840191505092915050565b60008154610a7f81610c50565b610a898186610c03565b94506001821660008114610aa45760018114610ab557610ae8565b60ff19831686528186019350610ae8565b610abe85610bd2565b60005b83811015610ae057815481890152600182019150602081019050610ac1565b838801955050505b50505092915050565b6000610afe600283610c03565b9150610b0982610d22565b600282019050919050565b6000610b208284610a41565b915081905092915050565b6000610b378285610a72565b9150610b4282610af1565b9150610b4e8284610a41565b91508190509392505050565b60006020820190508181036000830152610b748184610a08565b905092915050565b6000610b86610b97565b9050610b928282610c82565b919050565b6000604051905090565b600067ffffffffffffffff821115610bbc57610bbb610ce2565b5b610bc582610d11565b9050602081019050919050565b60008190508160005260206000209050919050565b600081519050919050565b600082825260208201905092915050565b600081905092915050565b82818337600083830152505050565b60005b83811015610c3b578082015181840152602081019050610c20565b83811115610c4a576000848401525b50505050565b60006002820490506001821680610c6857607f821691505b60208210811415610c7c57610c7b610cb3565b5b50919050565b610c8b82610d11565b810181811067ffffffffffffffff82111715610caa57610ca9610ce2565b5b80604052505050565b7f4e487b7100000000000000000000000000000000000000000000000000000000600052602260045260246000fd5b7f4e487b7100000000000000000000000000000000000000000000000000000000600052604160045260246000fd5b6000601f19601f8301169050919050565b7f2c2000000000000000000000000000000000000000000000000000000000000060008201525056fea2646970667358221220ebda8b42c60598209b2af9113ea75577a0375c5bd43f06253e93d759cece61f364736f6c63430008040033",
  "linkReferences": {},
  "deployedLinkReferences": {}
}