{
  "_format": "hh-sol-artifact-1",
  "contractName": "Records",
  "sourceName": "contracts/Records.sol",
  "abi": [
    {
      "inputs": [
        {
          "internalType": "string",
          "name": "_patientId",
          "type": "string"
        },
        {
          "internalType": "string",
          "name": "_currentDiagnosis",
          "type": "string"
        }
      ],
      "name": "addCurrentDiagnosis",
      "outputs": [],
      "stateMutability": "nonpayable",
      "type": "function"
    },
    {
      "inputs": [
        {
          "internalType": "string",
          "name": "_patientId",
          "type": "string"
        },
        {
          "internalType": "string",
          "name": "_currentMedicalDosage",
          "type": "string"
        }
      ],
      "name": "addCurrentMedicalDosage",
      "outputs": [],
      "stateMutability": "nonpayable",
      "type": "function"
    },
    {
      "inputs": [
        {
          "internalType": "string",
          "name": "_patientId",
          "type": "string"
        },
        {
          "internalType": "string",
          "name": "_date",
          "type": "string"
        }
      ],
      "name": "addLastUpdated",
      "outputs": [],
      "stateMutability": "nonpayable",
      "type": "function"
    },
    {
      "inputs": [
        {
          "internalType": "string",
          "name": "_patientId",
          "type": "string"
        },
        {
          "internalType": "string",
          "name": "_PDFreport",
          "type": "string"
        }
      ],
      "name": "addPDFreport",
      "outputs": [],
      "stateMutability": "nonpayable",
      "type": "function"
    },
    {
      "inputs": [
        {
          "internalType": "string",
          "name": "_patientId",
          "type": "string"
        },
        {
          "internalType": "string",
          "name": "_updatedBy",
          "type": "string"
        }
      ],
      "name": "addUpdatedBy",
      "outputs": [],
      "stateMutability": "nonpayable",
      "type": "function"
    },
    {
      "inputs": [
        {
          "internalType": "string",
          "name": "_patientId",
          "type": "string"
        }
      ],
      "name": "getAllPDFReports",
      "outputs": [
        {
          "internalType": "string",
          "name": "",
          "type": "string"
        }
      ],
      "stateMutability": "view",
      "type": "function"
    },
    {
      "inputs": [
        {
          "internalType": "string",
          "name": "_patientId",
          "type": "string"
        }
      ],
      "name": "getCurrentDiagnosis",
      "outputs": [
        {
          "internalType": "string",
          "name": "",
          "type": "string"
        }
      ],
      "stateMutability": "view",
      "type": "function"
    },
    {
      "inputs": [
        {
          "internalType": "string",
          "name": "_patientId",
          "type": "string"
        }
      ],
      "name": "getCurrentMedicalDosage",
      "outputs": [
        {
          "internalType": "string",
          "name": "",
          "type": "string"
        }
      ],
      "stateMutability": "view",
      "type": "function"
    },
    {
      "inputs": [
        {
          "internalType": "string",
          "name": "_patientId",
          "type": "string"
        }
      ],
      "name": "getLastUpdated",
      "outputs": [
        {
          "internalType": "string",
          "name": "",
          "type": "string"
        }
      ],
      "stateMutability": "view",
      "type": "function"
    },
    {
      "inputs": [
        {
          "internalType": "string",
          "name": "_patientId",
          "type": "string"
        }
      ],
      "name": "getPDFreport",
      "outputs": [
        {
          "internalType": "string",
          "name": "",
          "type": "string"
        }
      ],
      "stateMutability": "view",
      "type": "function"
    },
    {
      "inputs": [
        {
          "internalType": "string",
          "name": "_patientId",
          "type": "string"
        }
      ],
      "name": "getUpdatedBy",
      "outputs": [
        {
          "internalType": "string",
          "name": "",
          "type": "string"
        }
      ],
      "stateMutability": "view",
      "type": "function"
    }
  ],
  "bytecode": "0x608060405234801561001057600080fd5b50610e4e806100206000396000f3fe608060405234801561001057600080fd5b50600436106100a95760003560e01c8063a0595e8911610071578063a0595e8914610176578063a6c6608b146101a6578063acd0afc9146101c2578063dd1388c2146101de578063ea7a757a1461020e578063f2c6d3cc1461022a576100a9565b80630e4b889f146100ae5780632324d520146100ca57806335cbe12c146100fa5780637c7b5ee81461012a57806380a2ca0f1461015a575b600080fd5b6100c860048036038101906100c391906109b3565b61025a565b005b6100e460048036038101906100df9190610972565b610294565b6040516100f19190610b71565b60405180910390f35b610114600480360381019061010f9190610972565b610369565b6040516101219190610b71565b60405180910390f35b610144600480360381019061013f9190610972565b61041c565b6040516101519190610b71565b60405180910390f35b610174600480360381019061016f91906109b3565b6104cf565b005b610190600480360381019061018b9190610972565b610509565b60405161019d9190610b71565b60405180910390f35b6101c060048036038101906101bb91906109b3565b61062e565b005b6101dc60048036038101906101d791906109b3565b610668565b005b6101f860048036038101906101f39190610972565b6106a2565b6040516102059190610b71565b60405180910390f35b610228600480360381019061022391906109b3565b610755565b005b610244600480360381019061023f9190610972565b6107b4565b6040516102519190610b71565b60405180910390f35b8060008360405161026b9190610b2b565b9081526020016040518091039020600001908051906020019061028f929190610867565b505050565b60608060005b6000846040516102aa9190610b2b565b90815260200160405180910390206004018054905081101561035f57816000856040516102d79190610b2b565b90815260200160405180910390206004018281548110610320577f4e487b7100000000000000000000000000000000000000000000000000000000600052603260045260246000fd5b9060005260206000200160405160200161033b929190610b42565b6040516020818303038152906040529150808061035790610d08565b91505061029a565b5080915050919050565b606060008260405161037b9190610b2b565b9081526020016040518091039020600301805461039790610ca5565b80601f01602080910402602001604051908101604052809291908181526020018280546103c390610ca5565b80156104105780601f106103e557610100808354040283529160200191610410565b820191906000526020600020905b8154815290600101906020018083116103f357829003601f168201915b50505050509050919050565b606060008260405161042e9190610b2b565b9081526020016040518091039020600101805461044a90610ca5565b80601f016020809104026020016040519081016040528092919081815260200182805461047690610ca5565b80156104c35780601f10610498576101008083540402835291602001916104c3565b820191906000526020600020905b8154815290600101906020018083116104a657829003601f168201915b50505050509050919050565b806000836040516104e09190610b2b565b90815260200160405180910390206002019080519060200190610504929190610867565b505050565b606060008260405161051b9190610b2b565b9081526020016040518091039020600401600160008460405161053e9190610b2b565b90815260200160405180910390206004018054905061055d9190610c25565b81548110610594577f4e487b7100000000000000000000000000000000000000000000000000000000600052603260045260246000fd5b9060005260206000200180546105a990610ca5565b80601f01602080910402602001604051908101604052809291908181526020018280546105d590610ca5565b80156106225780601f106105f757610100808354040283529160200191610622565b820191906000526020600020905b81548152906001019060200180831161060557829003601f168201915b50505050509050919050565b8060008360405161063f9190610b2b565b90815260200160405180910390206001019080519060200190610663929190610867565b505050565b806000836040516106799190610b2b565b9081526020016040518091039020600301908051906020019061069d929190610867565b505050565b60606000826040516106b49190610b2b565b908152602001604051809103902060000180546106d090610ca5565b80601f01602080910402602001604051908101604052809291908181526020018280546106fc90610ca5565b80156107495780601f1061071e57610100808354040283529160200191610749565b820191906000526020600020905b81548152906001019060200180831161072c57829003601f168201915b50505050509050919050565b6000826040516107659190610b2b565b9081526020016040518091039020600401819080600181540180825580915050600190039060005260206000200160009091909190915090805190602001906107af929190610867565b505050565b60606000826040516107c69190610b2b565b908152602001604051809103902060020180546107e290610ca5565b80601f016020809104026020016040519081016040528092919081815260200182805461080e90610ca5565b801561085b5780601f106108305761010080835404028352916020019161085b565b820191906000526020600020905b81548152906001019060200180831161083e57829003601f168201915b50505050509050919050565b82805461087390610ca5565b90600052602060002090601f01602090048101928261089557600085556108dc565b82601f106108ae57805160ff19168380011785556108dc565b828001600101855582156108dc579182015b828111156108db5782518255916020019190600101906108c0565b5b5090506108e991906108ed565b5090565b5b808211156109065760008160009055506001016108ee565b5090565b600061091d61091884610bb8565b610b93565b90508281526020810184848401111561093557600080fd5b610940848285610c63565b509392505050565b600082601f83011261095957600080fd5b813561096984826020860161090a565b91505092915050565b60006020828403121561098457600080fd5b600082013567ffffffffffffffff81111561099e57600080fd5b6109aa84828501610948565b91505092915050565b600080604083850312156109c657600080fd5b600083013567ffffffffffffffff8111156109e057600080fd5b6109ec85828601610948565b925050602083013567ffffffffffffffff811115610a0957600080fd5b610a1585828601610948565b9150509250929050565b6000610a2a82610bfe565b610a348185610c09565b9350610a44818560208601610c72565b610a4d81610dde565b840191505092915050565b6000610a6382610bfe565b610a6d8185610c1a565b9350610a7d818560208601610c72565b80840191505092915050565b60008154610a9681610ca5565b610aa08186610c1a565b94506001821660008114610abb5760018114610acc57610aff565b60ff19831686528186019350610aff565b610ad585610be9565b60005b83811015610af757815481890152600182019150602081019050610ad8565b838801955050505b50505092915050565b6000610b15600283610c1a565b9150610b2082610def565b600282019050919050565b6000610b378284610a58565b915081905092915050565b6000610b4e8285610a58565b9150610b5982610b08565b9150610b658284610a89565b91508190509392505050565b60006020820190508181036000830152610b8b8184610a1f565b905092915050565b6000610b9d610bae565b9050610ba98282610cd7565b919050565b6000604051905090565b600067ffffffffffffffff821115610bd357610bd2610daf565b5b610bdc82610dde565b9050602081019050919050565b60008190508160005260206000209050919050565b600081519050919050565b600082825260208201905092915050565b600081905092915050565b6000610c3082610c59565b9150610c3b83610c59565b925082821015610c4e57610c4d610d51565b5b828203905092915050565b6000819050919050565b82818337600083830152505050565b60005b83811015610c90578082015181840152602081019050610c75565b83811115610c9f576000848401525b50505050565b60006002820490506001821680610cbd57607f821691505b60208210811415610cd157610cd0610d80565b5b50919050565b610ce082610dde565b810181811067ffffffffffffffff82111715610cff57610cfe610daf565b5b80604052505050565b6000610d1382610c59565b91507fffffffffffffffffffffffffffffffffffffffffffffffffffffffffffffffff821415610d4657610d45610d51565b5b600182019050919050565b7f4e487b7100000000000000000000000000000000000000000000000000000000600052601160045260246000fd5b7f4e487b7100000000000000000000000000000000000000000000000000000000600052602260045260246000fd5b7f4e487b7100000000000000000000000000000000000000000000000000000000600052604160045260246000fd5b6000601f19601f8301169050919050565b7f2c2000000000000000000000000000000000000000000000000000000000000060008201525056fea2646970667358221220d6bc243efe3b15579d9561f503d2a73ba9fda76eca64a69f988dc7c5123a307c64736f6c63430008040033",
  "linkReferences": {},
  "deployedLinkReferences": {}
}